{
  "_format": "hh-sol-artifact-1",
  "contractName": "MyNFTBattler",
  "sourceName": "contracts/MyNFTBattler.sol",
  "abi": [
    {
      "inputs": [
        {
          "internalType": "string[]",
          "name": "characterNames",
          "type": "string[]"
        },
        {
          "internalType": "string[]",
          "name": "characterImageURIs",
          "type": "string[]"
        },
        {
          "internalType": "uint256[]",
          "name": "characterCurrentHP",
          "type": "uint256[]"
        },
        {
          "internalType": "uint256[]",
          "name": "characterAttackDamage",
          "type": "uint256[]"
        },
        {
          "internalType": "string",
          "name": "bossName",
          "type": "string"
        },
        {
          "internalType": "string",
          "name": "bossImageURI",
          "type": "string"
        },
        {
          "internalType": "uint256",
          "name": "bossHP",
          "type": "uint256"
        },
        {
          "internalType": "uint256",
          "name": "bossAttackDamage",
          "type": "uint256"
        }
      ],
      "stateMutability": "nonpayable",
      "type": "constructor"
    },
    {
      "anonymous": false,
      "inputs": [
        {
          "indexed": true,
          "internalType": "address",
          "name": "owner",
          "type": "address"
        },
        {
          "indexed": true,
          "internalType": "address",
          "name": "approved",
          "type": "address"
        },
        {
          "indexed": true,
          "internalType": "uint256",
          "name": "tokenId",
          "type": "uint256"
        }
      ],
      "name": "Approval",
      "type": "event"
    },
    {
      "anonymous": false,
      "inputs": [
        {
          "indexed": true,
          "internalType": "address",
          "name": "owner",
          "type": "address"
        },
        {
          "indexed": true,
          "internalType": "address",
          "name": "operator",
          "type": "address"
        },
        {
          "indexed": false,
          "internalType": "bool",
          "name": "approved",
          "type": "bool"
        }
      ],
      "name": "ApprovalForAll",
      "type": "event"
    },
    {
      "anonymous": false,
      "inputs": [
        {
          "indexed": false,
          "internalType": "uint256",
          "name": "newBossHp",
          "type": "uint256"
        },
        {
          "indexed": false,
          "internalType": "uint256",
          "name": "newPlayerHp",
          "type": "uint256"
        }
      ],
      "name": "AttackComplete",
      "type": "event"
    },
    {
      "anonymous": false,
      "inputs": [
        {
          "indexed": false,
          "internalType": "address",
          "name": "sender",
          "type": "address"
        },
        {
          "indexed": false,
          "internalType": "uint256",
          "name": "tokenId",
          "type": "uint256"
        },
        {
          "indexed": false,
          "internalType": "uint256",
          "name": "characterIndex",
          "type": "uint256"
        }
      ],
      "name": "CharacterNFTMinted",
      "type": "event"
    },
    {
      "anonymous": false,
      "inputs": [
        {
          "indexed": true,
          "internalType": "address",
          "name": "from",
          "type": "address"
        },
        {
          "indexed": true,
          "internalType": "address",
          "name": "to",
          "type": "address"
        },
        {
          "indexed": true,
          "internalType": "uint256",
          "name": "tokenId",
          "type": "uint256"
        }
      ],
      "name": "Transfer",
      "type": "event"
    },
    {
      "inputs": [
        {
          "internalType": "address",
          "name": "to",
          "type": "address"
        },
        {
          "internalType": "uint256",
          "name": "tokenId",
          "type": "uint256"
        }
      ],
      "name": "approve",
      "outputs": [],
      "stateMutability": "nonpayable",
      "type": "function"
    },
    {
      "inputs": [],
      "name": "attackBoss",
      "outputs": [],
      "stateMutability": "nonpayable",
      "type": "function"
    },
    {
      "inputs": [
        {
          "internalType": "address",
          "name": "owner",
          "type": "address"
        }
      ],
      "name": "balanceOf",
      "outputs": [
        {
          "internalType": "uint256",
          "name": "",
          "type": "uint256"
        }
      ],
      "stateMutability": "view",
      "type": "function"
    },
    {
      "inputs": [],
      "name": "bigBoss",
      "outputs": [
        {
          "internalType": "string",
          "name": "name",
          "type": "string"
        },
        {
          "internalType": "string",
          "name": "imageURI",
          "type": "string"
        },
        {
          "internalType": "uint256",
          "name": "currentHP",
          "type": "uint256"
        },
        {
          "internalType": "uint256",
          "name": "maxHP",
          "type": "uint256"
        },
        {
          "internalType": "uint256",
          "name": "attackDamage",
          "type": "uint256"
        }
      ],
      "stateMutability": "view",
      "type": "function"
    },
    {
      "inputs": [],
      "name": "checkIfUserHasNFT",
      "outputs": [
        {
          "components": [
            {
              "internalType": "uint256",
              "name": "characterIndex",
              "type": "uint256"
            },
            {
              "internalType": "string",
              "name": "name",
              "type": "string"
            },
            {
              "internalType": "string",
              "name": "imageURI",
              "type": "string"
            },
            {
              "internalType": "uint256",
              "name": "currentHP",
              "type": "uint256"
            },
            {
              "internalType": "uint256",
              "name": "maxHP",
              "type": "uint256"
            },
            {
              "internalType": "uint256",
              "name": "attackDamage",
              "type": "uint256"
            }
          ],
          "internalType": "struct MyNFTBattler.CharacterAttributes",
          "name": "",
          "type": "tuple"
        }
      ],
      "stateMutability": "view",
      "type": "function"
    },
    {
      "inputs": [],
      "name": "getAllDefaultCharacters",
      "outputs": [
        {
          "components": [
            {
              "internalType": "uint256",
              "name": "characterIndex",
              "type": "uint256"
            },
            {
              "internalType": "string",
              "name": "name",
              "type": "string"
            },
            {
              "internalType": "string",
              "name": "imageURI",
              "type": "string"
            },
            {
              "internalType": "uint256",
              "name": "currentHP",
              "type": "uint256"
            },
            {
              "internalType": "uint256",
              "name": "maxHP",
              "type": "uint256"
            },
            {
              "internalType": "uint256",
              "name": "attackDamage",
              "type": "uint256"
            }
          ],
          "internalType": "struct MyNFTBattler.CharacterAttributes[]",
          "name": "",
          "type": "tuple[]"
        }
      ],
      "stateMutability": "view",
      "type": "function"
    },
    {
      "inputs": [
        {
          "internalType": "uint256",
          "name": "tokenId",
          "type": "uint256"
        }
      ],
      "name": "getApproved",
      "outputs": [
        {
          "internalType": "address",
          "name": "",
          "type": "address"
        }
      ],
      "stateMutability": "view",
      "type": "function"
    },
    {
      "inputs": [],
      "name": "getBigBoss",
      "outputs": [
        {
          "components": [
            {
              "internalType": "string",
              "name": "name",
              "type": "string"
            },
            {
              "internalType": "string",
              "name": "imageURI",
              "type": "string"
            },
            {
              "internalType": "uint256",
              "name": "currentHP",
              "type": "uint256"
            },
            {
              "internalType": "uint256",
              "name": "maxHP",
              "type": "uint256"
            },
            {
              "internalType": "uint256",
              "name": "attackDamage",
              "type": "uint256"
            }
          ],
          "internalType": "struct MyNFTBattler.BigBoss",
          "name": "",
          "type": "tuple"
        }
      ],
      "stateMutability": "view",
      "type": "function"
    },
    {
      "inputs": [
        {
          "internalType": "address",
          "name": "owner",
          "type": "address"
        },
        {
          "internalType": "address",
          "name": "operator",
          "type": "address"
        }
      ],
      "name": "isApprovedForAll",
      "outputs": [
        {
          "internalType": "bool",
          "name": "",
          "type": "bool"
        }
      ],
      "stateMutability": "view",
      "type": "function"
    },
    {
      "inputs": [
        {
          "internalType": "uint256",
          "name": "_characterIndex",
          "type": "uint256"
        }
      ],
      "name": "mintChampionNFT",
      "outputs": [],
      "stateMutability": "nonpayable",
      "type": "function"
    },
    {
      "inputs": [],
      "name": "name",
      "outputs": [
        {
          "internalType": "string",
          "name": "",
          "type": "string"
        }
      ],
      "stateMutability": "view",
      "type": "function"
    },
    {
      "inputs": [
        {
          "internalType": "uint256",
          "name": "",
          "type": "uint256"
        }
      ],
      "name": "nftHolderAttributes",
      "outputs": [
        {
          "internalType": "uint256",
          "name": "characterIndex",
          "type": "uint256"
        },
        {
          "internalType": "string",
          "name": "name",
          "type": "string"
        },
        {
          "internalType": "string",
          "name": "imageURI",
          "type": "string"
        },
        {
          "internalType": "uint256",
          "name": "currentHP",
          "type": "uint256"
        },
        {
          "internalType": "uint256",
          "name": "maxHP",
          "type": "uint256"
        },
        {
          "internalType": "uint256",
          "name": "attackDamage",
          "type": "uint256"
        }
      ],
      "stateMutability": "view",
      "type": "function"
    },
    {
      "inputs": [
        {
          "internalType": "address",
          "name": "",
          "type": "address"
        }
      ],
      "name": "nftHolders",
      "outputs": [
        {
          "internalType": "uint256",
          "name": "",
          "type": "uint256"
        }
      ],
      "stateMutability": "view",
      "type": "function"
    },
    {
      "inputs": [
        {
          "internalType": "uint256",
          "name": "tokenId",
          "type": "uint256"
        }
      ],
      "name": "ownerOf",
      "outputs": [
        {
          "internalType": "address",
          "name": "",
          "type": "address"
        }
      ],
      "stateMutability": "view",
      "type": "function"
    },
    {
      "inputs": [
        {
          "internalType": "address",
          "name": "from",
          "type": "address"
        },
        {
          "internalType": "address",
          "name": "to",
          "type": "address"
        },
        {
          "internalType": "uint256",
          "name": "tokenId",
          "type": "uint256"
        }
      ],
      "name": "safeTransferFrom",
      "outputs": [],
      "stateMutability": "nonpayable",
      "type": "function"
    },
    {
      "inputs": [
        {
          "internalType": "address",
          "name": "from",
          "type": "address"
        },
        {
          "internalType": "address",
          "name": "to",
          "type": "address"
        },
        {
          "internalType": "uint256",
          "name": "tokenId",
          "type": "uint256"
        },
        {
          "internalType": "bytes",
          "name": "_data",
          "type": "bytes"
        }
      ],
      "name": "safeTransferFrom",
      "outputs": [],
      "stateMutability": "nonpayable",
      "type": "function"
    },
    {
      "inputs": [
        {
          "internalType": "address",
          "name": "operator",
          "type": "address"
        },
        {
          "internalType": "bool",
          "name": "approved",
          "type": "bool"
        }
      ],
      "name": "setApprovalForAll",
      "outputs": [],
      "stateMutability": "nonpayable",
      "type": "function"
    },
    {
      "inputs": [
        {
          "internalType": "bytes4",
          "name": "interfaceId",
          "type": "bytes4"
        }
      ],
      "name": "supportsInterface",
      "outputs": [
        {
          "internalType": "bool",
          "name": "",
          "type": "bool"
        }
      ],
      "stateMutability": "view",
      "type": "function"
    },
    {
      "inputs": [],
      "name": "symbol",
      "outputs": [
        {
          "internalType": "string",
          "name": "",
          "type": "string"
        }
      ],
      "stateMutability": "view",
      "type": "function"
    },
    {
      "inputs": [
        {
          "internalType": "uint256",
          "name": "_tokenId",
          "type": "uint256"
        }
      ],
      "name": "tokenURI",
      "outputs": [
        {
          "internalType": "string",
          "name": "",
          "type": "string"
        }
      ],
      "stateMutability": "view",
      "type": "function"
    },
    {
      "inputs": [
        {
          "internalType": "address",
          "name": "from",
          "type": "address"
        },
        {
          "internalType": "address",
          "name": "to",
          "type": "address"
        },
        {
          "internalType": "uint256",
          "name": "tokenId",
          "type": "uint256"
        }
      ],
      "name": "transferFrom",
      "outputs": [],
      "stateMutability": "nonpayable",
      "type": "function"
    }
  ],
  "bytecode": "0x60806040523480156200001157600080fd5b50604051620056b3380380620056b3833981810160405281019062000037919062000924565b6040518060400160405280600981526020017f4368616d70696f6e7300000000000000000000000000000000000000000000008152506040518060400160405280600581526020017f4348414d500000000000000000000000000000000000000000000000000000008152508160009080519060200190620000bb9291906200068c565b508060019080519060200190620000d49291906200068c565b5050506040518060a0016040528085815260200184815260200183815260200183815260200182815250600a60008201518160000190805190602001906200011e9291906200068c565b5060208201518160010190805190602001906200013d9291906200068c565b5060408201518160020155606082015181600301556080820151816004015590505060005b88518110156200057b5760076040518060c001604052808381526020018b8481518110620001b9577f4e487b7100000000000000000000000000000000000000000000000000000000600052603260045260246000fd5b602002602001015181526020018a848151811062000200577f4e487b7100000000000000000000000000000000000000000000000000000000600052603260045260246000fd5b6020026020010151815260200189848151811062000247577f4e487b7100000000000000000000000000000000000000000000000000000000600052603260045260246000fd5b602002602001015181526020018984815181106200028e577f4e487b7100000000000000000000000000000000000000000000000000000000600052603260045260246000fd5b60200260200101518152602001888481518110620002d5577f4e487b7100000000000000000000000000000000000000000000000000000000600052603260045260246000fd5b60200260200101518152509080600181540180825580915050600190039060005260206000209060060201600090919091909150600082015181600001556020820151816001019080519060200190620003319291906200068c565b506040820151816002019080519060200190620003509291906200068c565b50606082015181600301556080820151816004015560a082015181600501555050600060078281548110620003ae577f4e487b7100000000000000000000000000000000000000000000000000000000600052603260045260246000fd5b90600052602060002090600602016040518060c001604052908160008201548152602001600182018054620003e39062000ca7565b80601f0160208091040260200160405190810160405280929190818152602001828054620004119062000ca7565b8015620004625780601f10620004365761010080835404028352916020019162000462565b820191906000526020600020905b8154815290600101906020018083116200044457829003601f168201915b505050505081526020016002820180546200047d9062000ca7565b80601f0160208091040260200160405190810160405280929190818152602001828054620004ab9062000ca7565b8015620004fc5780601f10620004d057610100808354040283529160200191620004fc565b820191906000526020600020905b815481529060010190602001808311620004de57829003601f168201915b5050505050815260200160038201548152602001600482015481526020016005820154815250509050620005636040518060600160405280602581526020016200568e60259139826020015183606001518460400151620005a160201b62001d191760201c565b5060018162000573919062000c0a565b905062000162565b506200059360066200064d60201b62001dbb1760201c565b505050505050505062000dcb565b6200064784848484604051602401620005be949392919062000acf565b6040516020818303038152906040527f8d142cdd000000000000000000000000000000000000000000000000000000007bffffffffffffffffffffffffffffffffffffffffffffffffffffffff19166020820180517bffffffffffffffffffffffffffffffffffffffffffffffffffffffff83818316178352505050506200066360201b60201c565b50505050565b6001816000016000828254019250508190555050565b60008151905060006a636f6e736f6c652e6c6f679050602083016000808483855afa5050505050565b8280546200069a9062000ca7565b90600052602060002090601f016020900481019282620006be57600085556200070a565b82601f10620006d957805160ff19168380011785556200070a565b828001600101855582156200070a579182015b8281111562000709578251825591602001919060010190620006ec565b5b5090506200071991906200071d565b5090565b5b80821115620007385760008160009055506001016200071e565b5090565b6000620007536200074d8462000b5a565b62000b31565b905080838252602082019050828560208602820111156200077357600080fd5b60005b85811015620007c257815167ffffffffffffffff8111156200079757600080fd5b808601620007a68982620008e0565b8552602085019450602084019350505060018101905062000776565b5050509392505050565b6000620007e3620007dd8462000b89565b62000b31565b905080838252602082019050828560208602820111156200080357600080fd5b60005b858110156200083757816200081c88826200090d565b84526020840193506020830192505060018101905062000806565b5050509392505050565b600062000858620008528462000bb8565b62000b31565b9050828152602081018484840111156200087157600080fd5b6200087e84828562000c71565b509392505050565b600082601f8301126200089857600080fd5b8151620008aa8482602086016200073c565b91505092915050565b600082601f830112620008c557600080fd5b8151620008d7848260208601620007cc565b91505092915050565b600082601f830112620008f257600080fd5b81516200090484826020860162000841565b91505092915050565b6000815190506200091e8162000db1565b92915050565b600080600080600080600080610100898b0312156200094257600080fd5b600089015167ffffffffffffffff8111156200095d57600080fd5b6200096b8b828c0162000886565b985050602089015167ffffffffffffffff8111156200098957600080fd5b620009978b828c0162000886565b975050604089015167ffffffffffffffff811115620009b557600080fd5b620009c38b828c01620008b3565b965050606089015167ffffffffffffffff811115620009e157600080fd5b620009ef8b828c01620008b3565b955050608089015167ffffffffffffffff81111562000a0d57600080fd5b62000a1b8b828c01620008e0565b94505060a089015167ffffffffffffffff81111562000a3957600080fd5b62000a478b828c01620008e0565b93505060c062000a5a8b828c016200090d565b92505060e062000a6d8b828c016200090d565b9150509295985092959890939650565b600062000a8a8262000bee565b62000a96818562000bf9565b935062000aa881856020860162000c71565b62000ab38162000da0565b840191505092915050565b62000ac98162000c67565b82525050565b6000608082019050818103600083015262000aeb818762000a7d565b9050818103602083015262000b01818662000a7d565b905062000b12604083018562000abe565b818103606083015262000b26818462000a7d565b905095945050505050565b600062000b3d62000b50565b905062000b4b828262000cdd565b919050565b6000604051905090565b600067ffffffffffffffff82111562000b785762000b7762000d71565b5b602082029050602081019050919050565b600067ffffffffffffffff82111562000ba75762000ba662000d71565b5b602082029050602081019050919050565b600067ffffffffffffffff82111562000bd65762000bd562000d71565b5b62000be18262000da0565b9050602081019050919050565b600081519050919050565b600082825260208201905092915050565b600062000c178262000c67565b915062000c248362000c67565b9250827fffffffffffffffffffffffffffffffffffffffffffffffffffffffffffffffff0382111562000c5c5762000c5b62000d13565b5b828201905092915050565b6000819050919050565b60005b8381101562000c9157808201518184015260208101905062000c74565b8381111562000ca1576000848401525b50505050565b6000600282049050600182168062000cc057607f821691505b6020821081141562000cd75762000cd662000d42565b5b50919050565b62000ce88262000da0565b810181811067ffffffffffffffff8211171562000d0a5762000d0962000d71565b5b80604052505050565b7f4e487b7100000000000000000000000000000000000000000000000000000000600052601160045260246000fd5b7f4e487b7100000000000000000000000000000000000000000000000000000000600052602260045260246000fd5b7f4e487b7100000000000000000000000000000000000000000000000000000000600052604160045260246000fd5b6000601f19601f8301169050919050565b62000dbc8162000c67565b811462000dc857600080fd5b50565b6148b38062000ddb6000396000f3fe608060405234801561001057600080fd5b50600436106101375760003560e01c80637df124a1116100b8578063b88d4fde1161007c578063b88d4fde14610369578063b953084e14610385578063c87b56dd146103a3578063c8cf27f4146103d3578063d4f24c5b146103f1578063e985e9c5146103fb57610137565b80637df124a1146102a857806395d89b41146102d857806398da4c95146102f6578063a22cb4651461032b578063a9c326791461034757610137565b806323b872dd116100ff57806323b872dd146101f4578063245b53401461021057806342842e0e1461022c5780636352211e1461024857806370a082311461027857610137565b806301ffc9a71461013c5780630665f9611461016c57806306fdde031461018a578063081812fc146101a8578063095ea7b3146101d8575b600080fd5b61015660048036038101906101519190612ff3565b61042b565b6040516101639190613858565b60405180910390f35b61017461050d565b6040516101819190613bf1565b60405180910390f35b610192610669565b60405161019f9190613873565b60405180910390f35b6101c260048036038101906101bd9190613045565b6106fb565b6040516101cf9190613798565b60405180910390f35b6101f260048036038101906101ed9190612fb7565b610780565b005b61020e60048036038101906102099190612eb1565b610898565b005b61022a60048036038101906102259190613045565b6108f8565b005b61024660048036038101906102419190612eb1565b610cec565b005b610262600480360381019061025d9190613045565b610d0c565b60405161026f9190613798565b60405180910390f35b610292600480360381019061028d9190612e4c565b610dbe565b60405161029f9190613c35565b60405180910390f35b6102c260048036038101906102bd9190612e4c565b610e76565b6040516102cf9190613c35565b60405180910390f35b6102e0610e8e565b6040516102ed9190613873565b60405180910390f35b610310600480360381019061030b9190613045565b610f20565b60405161032296959493929190613c50565b60405180910390f35b61034560048036038101906103409190612f7b565b61106c565b005b61034f6111ed565b604051610360959493929190613942565b60405180910390f35b610383600480360381019061037e9190612f00565b611321565b005b61038d611383565b60405161039a9190613836565b60405180910390f35b6103bd60048036038101906103b89190613045565b61152e565b6040516103ca9190613873565b60405180910390f35b6103db611749565b6040516103e89190613c13565b60405180910390f35b6103f9611921565b005b61041560048036038101906104109190612e75565b611c85565b6040516104229190613858565b60405180910390f35b60007f80ac58cd000000000000000000000000000000000000000000000000000000007bffffffffffffffffffffffffffffffffffffffffffffffffffffffff1916827bffffffffffffffffffffffffffffffffffffffffffffffffffffffff191614806104f657507f5b5e139f000000000000000000000000000000000000000000000000000000007bffffffffffffffffffffffffffffffffffffffffffffffffffffffff1916827bffffffffffffffffffffffffffffffffffffffffffffffffffffffff1916145b80610506575061050582611dd1565b5b9050919050565b610515612c73565b600a6040518060a001604052908160008201805461053290613f96565b80601f016020809104026020016040519081016040528092919081815260200182805461055e90613f96565b80156105ab5780601f10610580576101008083540402835291602001916105ab565b820191906000526020600020905b81548152906001019060200180831161058e57829003601f168201915b505050505081526020016001820180546105c490613f96565b80601f01602080910402602001604051908101604052809291908181526020018280546105f090613f96565b801561063d5780601f106106125761010080835404028352916020019161063d565b820191906000526020600020905b81548152906001019060200180831161062057829003601f168201915b505050505081526020016002820154815260200160038201548152602001600482015481525050905090565b60606000805461067890613f96565b80601f01602080910402602001604051908101604052809291908181526020018280546106a490613f96565b80156106f15780601f106106c6576101008083540402835291602001916106f1565b820191906000526020600020905b8154815290600101906020018083116106d457829003601f168201915b5050505050905090565b600061070682611e3b565b610745576040517f08c379a000000000000000000000000000000000000000000000000000000000815260040161073c90613b71565b60405180910390fd5b6004600083815260200190815260200160002060009054906101000a900473ffffffffffffffffffffffffffffffffffffffff169050919050565b600061078b82610d0c565b90508073ffffffffffffffffffffffffffffffffffffffff168373ffffffffffffffffffffffffffffffffffffffff1614156107fc576040517f08c379a00000000000000000000000000000000000000000000000000000000081526004016107f390613bb1565b60405180910390fd5b8073ffffffffffffffffffffffffffffffffffffffff1661081b611ea7565b73ffffffffffffffffffffffffffffffffffffffff16148061084a575061084981610844611ea7565b611c85565b5b610889576040517f08c379a000000000000000000000000000000000000000000000000000000000815260040161088090613ad1565b60405180910390fd5b6108938383611eaf565b505050565b6108a96108a3611ea7565b82611f68565b6108e8576040517f08c379a00000000000000000000000000000000000000000000000000000000081526004016108df90613bd1565b60405180910390fd5b6108f3838383612046565b505050565b600061090460066122a2565b905061091033826122b0565b6040518060c001604052808381526020016007848154811061095b577f4e487b7100000000000000000000000000000000000000000000000000000000600052603260045260246000fd5b9060005260206000209060060201600101805461097790613f96565b80601f01602080910402602001604051908101604052809291908181526020018280546109a390613f96565b80156109f05780601f106109c5576101008083540402835291602001916109f0565b820191906000526020600020905b8154815290600101906020018083116109d357829003601f168201915b5050505050815260200160078481548110610a34577f4e487b7100000000000000000000000000000000000000000000000000000000600052603260045260246000fd5b90600052602060002090600602016002018054610a5090613f96565b80601f0160208091040260200160405190810160405280929190818152602001828054610a7c90613f96565b8015610ac95780601f10610a9e57610100808354040283529160200191610ac9565b820191906000526020600020905b815481529060010190602001808311610aac57829003601f168201915b5050505050815260200160078481548110610b0d577f4e487b7100000000000000000000000000000000000000000000000000000000600052603260045260246000fd5b906000526020600020906006020160030154815260200160078481548110610b5e577f4e487b7100000000000000000000000000000000000000000000000000000000600052603260045260246000fd5b906000526020600020906006020160030154815260200160078481548110610baf577f4e487b7100000000000000000000000000000000000000000000000000000000600052603260045260246000fd5b90600052602060002090600602016005015481525060086000838152602001908152602001600020600082015181600001556020820151816001019080519060200190610bfd929190612ca2565b506040820151816002019080519060200190610c1a929190612ca2565b50606082015181600301556080820151816004015560a08201518160050155905050610c5f6040518060600160405280602e8152602001614814602e913982846122ce565b80600960003373ffffffffffffffffffffffffffffffffffffffff1673ffffffffffffffffffffffffffffffffffffffff16815260200190815260200160002081905550610cad6006611dbb565b7f4bc303fd457a97b4691b9af582ce71868a3d258638c8d4f8c60988a0f0bfb8cd338284604051610ce0939291906137ff565b60405180910390a15050565b610d0783838360405180602001604052806000815250611321565b505050565b6000806002600084815260200190815260200160002060009054906101000a900473ffffffffffffffffffffffffffffffffffffffff169050600073ffffffffffffffffffffffffffffffffffffffff168173ffffffffffffffffffffffffffffffffffffffff161415610db5576040517f08c379a0000000000000000000000000000000000000000000000000000000008152600401610dac90613b11565b60405180910390fd5b80915050919050565b60008073ffffffffffffffffffffffffffffffffffffffff168273ffffffffffffffffffffffffffffffffffffffff161415610e2f576040517f08c379a0000000000000000000000000000000000000000000000000000000008152600401610e2690613af1565b60405180910390fd5b600360008373ffffffffffffffffffffffffffffffffffffffff1673ffffffffffffffffffffffffffffffffffffffff168152602001908152602001600020549050919050565b60096020528060005260406000206000915090505481565b606060018054610e9d90613f96565b80601f0160208091040260200160405190810160405280929190818152602001828054610ec990613f96565b8015610f165780601f10610eeb57610100808354040283529160200191610f16565b820191906000526020600020905b815481529060010190602001808311610ef957829003601f168201915b5050505050905090565b6008602052806000526040600020600091509050806000015490806001018054610f4990613f96565b80601f0160208091040260200160405190810160405280929190818152602001828054610f7590613f96565b8015610fc25780601f10610f9757610100808354040283529160200191610fc2565b820191906000526020600020905b815481529060010190602001808311610fa557829003601f168201915b505050505090806002018054610fd790613f96565b80601f016020809104026020016040519081016040528092919081815260200182805461100390613f96565b80156110505780601f1061102557610100808354040283529160200191611050565b820191906000526020600020905b81548152906001019060200180831161103357829003601f168201915b5050505050908060030154908060040154908060050154905086565b611074611ea7565b73ffffffffffffffffffffffffffffffffffffffff168273ffffffffffffffffffffffffffffffffffffffff1614156110e2576040517f08c379a00000000000000000000000000000000000000000000000000000000081526004016110d990613a91565b60405180910390fd5b80600560006110ef611ea7565b73ffffffffffffffffffffffffffffffffffffffff1673ffffffffffffffffffffffffffffffffffffffff16815260200190815260200160002060008473ffffffffffffffffffffffffffffffffffffffff1673ffffffffffffffffffffffffffffffffffffffff16815260200190815260200160002060006101000a81548160ff0219169083151502179055508173ffffffffffffffffffffffffffffffffffffffff1661119c611ea7565b73ffffffffffffffffffffffffffffffffffffffff167f17307eab39ab6107e8899845ad3d59bd9653f200f220920489ca2b5937696c31836040516111e19190613858565b60405180910390a35050565b600a8060000180546111fe90613f96565b80601f016020809104026020016040519081016040528092919081815260200182805461122a90613f96565b80156112775780601f1061124c57610100808354040283529160200191611277565b820191906000526020600020905b81548152906001019060200180831161125a57829003601f168201915b50505050509080600101805461128c90613f96565b80601f01602080910402602001604051908101604052809291908181526020018280546112b890613f96565b80156113055780601f106112da57610100808354040283529160200191611305565b820191906000526020600020905b8154815290600101906020018083116112e857829003601f168201915b5050505050908060020154908060030154908060040154905085565b61133261132c611ea7565b83611f68565b611371576040517f08c379a000000000000000000000000000000000000000000000000000000000815260040161136890613bd1565b60405180910390fd5b61137d8484848461236d565b50505050565b60606007805480602002602001604051908101604052809291908181526020016000905b8282101561152557838290600052602060002090600602016040518060c0016040529081600082015481526020016001820180546113e490613f96565b80601f016020809104026020016040519081016040528092919081815260200182805461141090613f96565b801561145d5780601f106114325761010080835404028352916020019161145d565b820191906000526020600020905b81548152906001019060200180831161144057829003601f168201915b5050505050815260200160028201805461147690613f96565b80601f01602080910402602001604051908101604052809291908181526020018280546114a290613f96565b80156114ef5780601f106114c4576101008083540402835291602001916114ef565b820191906000526020600020905b8154815290600101906020018083116114d257829003601f168201915b505050505081526020016003820154815260200160048201548152602001600582015481525050815260200190600101906113a7565b50505050905090565b60606000600860008481526020019081526020016000206040518060c00160405290816000820154815260200160018201805461156a90613f96565b80601f016020809104026020016040519081016040528092919081815260200182805461159690613f96565b80156115e35780601f106115b8576101008083540402835291602001916115e3565b820191906000526020600020905b8154815290600101906020018083116115c657829003601f168201915b505050505081526020016002820180546115fc90613f96565b80601f016020809104026020016040519081016040528092919081815260200182805461162890613f96565b80156116755780601f1061164a57610100808354040283529160200191611675565b820191906000526020600020905b81548152906001019060200180831161165857829003601f168201915b505050505081526020016003820154815260200160048201548152602001600582015481525050905060006116ad82606001516123c9565b905060006116be83608001516123c9565b905060006116cf8460a001516123c9565b9050600061171585602001516116e4896123c9565b8760400151878787604051602001611701969594939291906136d1565b604051602081830303815290604052612576565b905060008160405160200161172a9190613776565b6040516020818303038152906040529050809650505050505050919050565b611751612d28565b6000600960003373ffffffffffffffffffffffffffffffffffffffff1673ffffffffffffffffffffffffffffffffffffffff168152602001908152602001600020549050600081111561191057600860008281526020019081526020016000206040518060c0016040529081600082015481526020016001820180546117d690613f96565b80601f016020809104026020016040519081016040528092919081815260200182805461180290613f96565b801561184f5780601f106118245761010080835404028352916020019161184f565b820191906000526020600020905b81548152906001019060200180831161183257829003601f168201915b5050505050815260200160028201805461186890613f96565b80601f016020809104026020016040519081016040528092919081815260200182805461189490613f96565b80156118e15780601f106118b6576101008083540402835291602001916118e1565b820191906000526020600020905b8154815290600101906020018083116118c457829003601f168201915b50505050508152602001600382015481526020016004820154815260200160058201548152505091505061191e565b611918612d28565b80925050505b90565b6000600960003373ffffffffffffffffffffffffffffffffffffffff1673ffffffffffffffffffffffffffffffffffffffff1681526020019081526020016000205490506000600860008381526020019081526020016000209050611a346040518060600160405280603c8152602001614842603c91398260010180546119a790613f96565b80601f01602080910402602001604051908101604052809291908181526020018280546119d390613f96565b8015611a205780601f106119f557610100808354040283529160200191611a20565b820191906000526020600020905b815481529060010190602001808311611a0357829003601f168201915b505050505083600301548460050154612734565b611b0c6040518060400160405280601b81526020017f426f73732025732068617320257320485020616e642025732041440000000000815250600a6000018054611a7d90613f96565b80601f0160208091040260200160405190810160405280929190818152602001828054611aa990613f96565b8015611af65780601f10611acb57610100808354040283529160200191611af6565b820191906000526020600020905b815481529060010190602001808311611ad957829003601f168201915b5050505050600a60020154600a60040154612734565b6000816003015411611b53576040517f08c379a0000000000000000000000000000000000000000000000000000000008152600401611b4a90613b31565b60405180910390fd5b6000600a6002015411611b9b576040517f08c379a0000000000000000000000000000000000000000000000000000000008152600401611b9290613a31565b60405180910390fd5b8060050154600a600201541015611bbc576000600a60020181905550611bdb565b8060050154600a60020154611bd19190613eac565b600a600201819055505b600a6004015481600301541015611bfb5760008160030181905550611c19565b600a600401548160030154611c109190613eac565b81600301819055505b611c3f6040518060600160405280602881526020016147ec6028913982600301546127d6565b7f838ab28464562786a6c4ab2311964b82fa60bd9b14aa7e856af1f3f18d41a414600a600201548260030154604051611c79929190613cbf565b60405180910390a15050565b6000600560008473ffffffffffffffffffffffffffffffffffffffff1673ffffffffffffffffffffffffffffffffffffffff16815260200190815260200160002060008373ffffffffffffffffffffffffffffffffffffffff1673ffffffffffffffffffffffffffffffffffffffff16815260200190815260200160002060009054906101000a900460ff16905092915050565b611db584848484604051602401611d339493929190613895565b6040516020818303038152906040527f8d142cdd000000000000000000000000000000000000000000000000000000007bffffffffffffffffffffffffffffffffffffffffffffffffffffffff19166020820180517bffffffffffffffffffffffffffffffffffffffffffffffffffffffff8381831617835250505050612872565b50505050565b6001816000016000828254019250508190555050565b60007f01ffc9a7000000000000000000000000000000000000000000000000000000007bffffffffffffffffffffffffffffffffffffffffffffffffffffffff1916827bffffffffffffffffffffffffffffffffffffffffffffffffffffffff1916149050919050565b60008073ffffffffffffffffffffffffffffffffffffffff166002600084815260200190815260200160002060009054906101000a900473ffffffffffffffffffffffffffffffffffffffff1673ffffffffffffffffffffffffffffffffffffffff1614159050919050565b600033905090565b816004600083815260200190815260200160002060006101000a81548173ffffffffffffffffffffffffffffffffffffffff021916908373ffffffffffffffffffffffffffffffffffffffff160217905550808273ffffffffffffffffffffffffffffffffffffffff16611f2283610d0c565b73ffffffffffffffffffffffffffffffffffffffff167f8c5be1e5ebec7d5bd14f71427d1e84f3dd0314c0f7b2291e5b200ac8c7c3b92560405160405180910390a45050565b6000611f7382611e3b565b611fb2576040517f08c379a0000000000000000000000000000000000000000000000000000000008152600401611fa990613ab1565b60405180910390fd5b6000611fbd83610d0c565b90508073ffffffffffffffffffffffffffffffffffffffff168473ffffffffffffffffffffffffffffffffffffffff16148061202c57508373ffffffffffffffffffffffffffffffffffffffff16612014846106fb565b73ffffffffffffffffffffffffffffffffffffffff16145b8061203d575061203c8185611c85565b5b91505092915050565b8273ffffffffffffffffffffffffffffffffffffffff1661206682610d0c565b73ffffffffffffffffffffffffffffffffffffffff16146120bc576040517f08c379a00000000000000000000000000000000000000000000000000000000081526004016120b390613b91565b60405180910390fd5b600073ffffffffffffffffffffffffffffffffffffffff168273ffffffffffffffffffffffffffffffffffffffff16141561212c576040517f08c379a000000000000000000000000000000000000000000000000000000000815260040161212390613a71565b60405180910390fd5b61213783838361289b565b612142600082611eaf565b6001600360008573ffffffffffffffffffffffffffffffffffffffff1673ffffffffffffffffffffffffffffffffffffffff16815260200190815260200160002060008282546121929190613eac565b925050819055506001600360008473ffffffffffffffffffffffffffffffffffffffff1673ffffffffffffffffffffffffffffffffffffffff16815260200190815260200160002060008282546121e99190613dcb565b92505081905550816002600083815260200190815260200160002060006101000a81548173ffffffffffffffffffffffffffffffffffffffff021916908373ffffffffffffffffffffffffffffffffffffffff160217905550808273ffffffffffffffffffffffffffffffffffffffff168473ffffffffffffffffffffffffffffffffffffffff167fddf252ad1be2c89b69c2b068fc378daa952ba7f163c4a11628f55a4df523b3ef60405160405180910390a4505050565b600081600001549050919050565b6122ca8282604051806020016040528060008152506128a0565b5050565b6123688383836040516024016122e6939291906139d3565b6040516020818303038152906040527f969cdd03000000000000000000000000000000000000000000000000000000007bffffffffffffffffffffffffffffffffffffffffffffffffffffffff19166020820180517bffffffffffffffffffffffffffffffffffffffffffffffffffffffff8381831617835250505050612872565b505050565b612378848484612046565b612384848484846128fb565b6123c3576040517f08c379a00000000000000000000000000000000000000000000000000000000081526004016123ba90613a11565b60405180910390fd5b50505050565b60606000821415612411576040518060400160405280600181526020017f30000000000000000000000000000000000000000000000000000000000000008152509050612571565b600082905060005b6000821461244357808061242c90613ff9565b915050600a8261243c9190613e21565b9150612419565b60008167ffffffffffffffff811115612485577f4e487b7100000000000000000000000000000000000000000000000000000000600052604160045260246000fd5b6040519080825280601f01601f1916602001820160405280156124b75781602001600182028036833780820191505090505b5090505b6000851461256a576001826124d09190613eac565b9150600a856124df9190614042565b60306124eb9190613dcb565b60f81b818381518110612527577f4e487b7100000000000000000000000000000000000000000000000000000000600052603260045260246000fd5b60200101907effffffffffffffffffffffffffffffffffffffffffffffffffffffffffffff1916908160001a905350600a856125639190613e21565b94506124bb565b8093505050505b919050565b6060600082519050600081141561259f576040518060200160405280600081525091505061272f565b600060036002836125b09190613dcb565b6125ba9190613e21565b60046125c69190613e52565b905060006020826125d79190613dcb565b67ffffffffffffffff811115612616577f4e487b7100000000000000000000000000000000000000000000000000000000600052604160045260246000fd5b6040519080825280601f01601f1916602001820160405280156126485781602001600182028036833780820191505090505b50905060006040518060600160405280604081526020016147ac604091399050600181016020830160005b868110156126ec5760038101905062ffffff818a015116603f8160121c168401518060081b905060ff603f83600c1c1686015116810190508060081b905060ff603f8360061c1686015116810190508060081b905060ff603f831686015116810190508060e01b90508084526004840193505050612673565b506003860660018114612706576002811461271657612721565b613d3d60f01b6002830352612721565b603d60f81b60018303525b508484525050819450505050505b919050565b6127d08484848460405160240161274e94939291906138ef565b6040516020818303038152906040527fd5cf17d0000000000000000000000000000000000000000000000000000000007bffffffffffffffffffffffffffffffffffffffffffffffffffffffff19166020820180517bffffffffffffffffffffffffffffffffffffffffffffffffffffffff8381831617835250505050612872565b50505050565b61286e82826040516024016127ec9291906139a3565b6040516020818303038152906040527f9710a9d0000000000000000000000000000000000000000000000000000000007bffffffffffffffffffffffffffffffffffffffffffffffffffffffff19166020820180517bffffffffffffffffffffffffffffffffffffffffffffffffffffffff8381831617835250505050612872565b5050565b60008151905060006a636f6e736f6c652e6c6f679050602083016000808483855afa5050505050565b505050565b6128aa8383612a92565b6128b760008484846128fb565b6128f6576040517f08c379a00000000000000000000000000000000000000000000000000000000081526004016128ed90613a11565b60405180910390fd5b505050565b600061291c8473ffffffffffffffffffffffffffffffffffffffff16612c60565b15612a85578373ffffffffffffffffffffffffffffffffffffffff1663150b7a02612945611ea7565b8786866040518563ffffffff1660e01b815260040161296794939291906137b3565b602060405180830381600087803b15801561298157600080fd5b505af19250505080156129b257506040513d601f19601f820116820180604052508101906129af919061301c565b60015b612a35573d80600081146129e2576040519150601f19603f3d011682016040523d82523d6000602084013e6129e7565b606091505b50600081511415612a2d576040517f08c379a0000000000000000000000000000000000000000000000000000000008152600401612a2490613a11565b60405180910390fd5b805181602001fd5b63150b7a0260e01b7bffffffffffffffffffffffffffffffffffffffffffffffffffffffff1916817bffffffffffffffffffffffffffffffffffffffffffffffffffffffff191614915050612a8a565b600190505b949350505050565b600073ffffffffffffffffffffffffffffffffffffffff168273ffffffffffffffffffffffffffffffffffffffff161415612b02576040517f08c379a0000000000000000000000000000000000000000000000000000000008152600401612af990613b51565b60405180910390fd5b612b0b81611e3b565b15612b4b576040517f08c379a0000000000000000000000000000000000000000000000000000000008152600401612b4290613a51565b60405180910390fd5b612b576000838361289b565b6001600360008473ffffffffffffffffffffffffffffffffffffffff1673ffffffffffffffffffffffffffffffffffffffff1681526020019081526020016000206000828254612ba79190613dcb565b92505081905550816002600083815260200190815260200160002060006101000a81548173ffffffffffffffffffffffffffffffffffffffff021916908373ffffffffffffffffffffffffffffffffffffffff160217905550808273ffffffffffffffffffffffffffffffffffffffff16600073ffffffffffffffffffffffffffffffffffffffff167fddf252ad1be2c89b69c2b068fc378daa952ba7f163c4a11628f55a4df523b3ef60405160405180910390a45050565b600080823b905060008111915050919050565b6040518060a0016040528060608152602001606081526020016000815260200160008152602001600081525090565b828054612cae90613f96565b90600052602060002090601f016020900481019282612cd05760008555612d17565b82601f10612ce957805160ff1916838001178555612d17565b82800160010185558215612d17579182015b82811115612d16578251825591602001919060010190612cfb565b5b509050612d249190612d5e565b5090565b6040518060c001604052806000815260200160608152602001606081526020016000815260200160008152602001600081525090565b5b80821115612d77576000816000905550600101612d5f565b5090565b6000612d8e612d8984613d0d565b613ce8565b905082815260208101848484011115612da657600080fd5b612db1848285613f54565b509392505050565b600081359050612dc88161474f565b92915050565b600081359050612ddd81614766565b92915050565b600081359050612df28161477d565b92915050565b600081519050612e078161477d565b92915050565b600082601f830112612e1e57600080fd5b8135612e2e848260208601612d7b565b91505092915050565b600081359050612e4681614794565b92915050565b600060208284031215612e5e57600080fd5b6000612e6c84828501612db9565b91505092915050565b60008060408385031215612e8857600080fd5b6000612e9685828601612db9565b9250506020612ea785828601612db9565b9150509250929050565b600080600060608486031215612ec657600080fd5b6000612ed486828701612db9565b9350506020612ee586828701612db9565b9250506040612ef686828701612e37565b9150509250925092565b60008060008060808587031215612f1657600080fd5b6000612f2487828801612db9565b9450506020612f3587828801612db9565b9350506040612f4687828801612e37565b925050606085013567ffffffffffffffff811115612f6357600080fd5b612f6f87828801612e0d565b91505092959194509250565b60008060408385031215612f8e57600080fd5b6000612f9c85828601612db9565b9250506020612fad85828601612dce565b9150509250929050565b60008060408385031215612fca57600080fd5b6000612fd885828601612db9565b9250506020612fe985828601612e37565b9150509250929050565b60006020828403121561300557600080fd5b600061301384828501612de3565b91505092915050565b60006020828403121561302e57600080fd5b600061303c84828501612df8565b91505092915050565b60006020828403121561305757600080fd5b600061306584828501612e37565b91505092915050565b600061307a8383613593565b905092915050565b61308b81613ee0565b82525050565b600061309c82613d4e565b6130a68185613d7c565b9350836020820285016130b885613d3e565b8060005b858110156130f457848403895281516130d5858261306e565b94506130e083613d6f565b925060208a019950506001810190506130bc565b50829750879550505050505092915050565b61310f81613ef2565b82525050565b600061312082613d59565b61312a8185613d8d565b935061313a818560208601613f63565b6131438161412f565b840191505092915050565b600061315982613d64565b6131638185613d9e565b9350613173818560208601613f63565b61317c8161412f565b840191505092915050565b600061319282613d64565b61319c8185613daf565b93506131ac818560208601613f63565b6131b58161412f565b840191505092915050565b60006131cb82613d64565b6131d58185613dc0565b93506131e5818560208601613f63565b80840191505092915050565b60006131fe600b83613dc0565b915061320982614140565b600b82019050919050565b6000613221603283613daf565b915061322c82614169565b604082019050919050565b6000613244602883613daf565b915061324f826141b8565b604082019050919050565b6000613267601c83613daf565b915061327282614207565b602082019050919050565b600061328a600e83613dc0565b915061329582614230565b600e82019050919050565b60006132ad602483613daf565b91506132b882614259565b604082019050919050565b60006132d0601983613daf565b91506132db826142a8565b602082019050919050565b60006132f3602c83613daf565b91506132fe826142d1565b604082019050919050565b6000613316603883613daf565b915061332182614320565b604082019050919050565b6000613339602a83613daf565b91506133448261436f565b604082019050919050565b600061335c602983613daf565b9150613367826143be565b604082019050919050565b600061337f602d83613daf565b915061338a8261440d565b604082019050919050565b60006133a2600483613dc0565b91506133ad8261445c565b600482019050919050565b60006133c5602083613daf565b91506133d082614485565b602082019050919050565b60006133e8605d83613dc0565b91506133f3826144ae565b605d82019050919050565b600061340b602c83613daf565b915061341682614523565b604082019050919050565b600061342e602983613daf565b915061343982614572565b604082019050919050565b6000613451600a83613dc0565b915061345c826145c1565b600a82019050919050565b6000613474602183613daf565b915061347f826145ea565b604082019050919050565b6000613497601d83613dc0565b91506134a282614639565b601d82019050919050565b60006134ba603183613daf565b91506134c582614662565b604082019050919050565b60006134dd603d83613dc0565b91506134e8826146b1565b603d82019050919050565b6000613500602d83613dc0565b915061350b82614700565b602d82019050919050565b600060a0830160008301518482036000860152613533828261314e565b9150506020830151848203602086015261354d828261314e565b915050604083015161356260408601826136b3565b50606083015161357560608601826136b3565b50608083015161358860808601826136b3565b508091505092915050565b600060c0830160008301516135ab60008601826136b3565b50602083015184820360208601526135c3828261314e565b915050604083015184820360408601526135dd828261314e565b91505060608301516135f260608601826136b3565b50608083015161360560808601826136b3565b5060a083015161361860a08601826136b3565b508091505092915050565b600060c08301600083015161363b60008601826136b3565b5060208301518482036020860152613653828261314e565b9150506040830151848203604086015261366d828261314e565b915050606083015161368260608601826136b3565b50608083015161369560808601826136b3565b5060a08301516136a860a08601826136b3565b508091505092915050565b6136bc81613f4a565b82525050565b6136cb81613f4a565b82525050565b60006136dc82613444565b91506136e882896131c0565b91506136f3826131f1565b91506136ff82886131c0565b915061370a826133db565b915061371682876131c0565b9150613721826134d0565b915061372d82866131c0565b91506137388261327d565b915061374482856131c0565b915061374f826134f3565b915061375b82846131c0565b915061376682613395565b9150819050979650505050505050565b60006137818261348a565b915061378d82846131c0565b915081905092915050565b60006020820190506137ad6000830184613082565b92915050565b60006080820190506137c86000830187613082565b6137d56020830186613082565b6137e260408301856136c2565b81810360608301526137f48184613115565b905095945050505050565b60006060820190506138146000830186613082565b61382160208301856136c2565b61382e60408301846136c2565b949350505050565b600060208201905081810360008301526138508184613091565b905092915050565b600060208201905061386d6000830184613106565b92915050565b6000602082019050818103600083015261388d8184613187565b905092915050565b600060808201905081810360008301526138af8187613187565b905081810360208301526138c38186613187565b90506138d260408301856136c2565b81810360608301526138e48184613187565b905095945050505050565b600060808201905081810360008301526139098187613187565b9050818103602083015261391d8186613187565b905061392c60408301856136c2565b61393960608301846136c2565b95945050505050565b600060a082019050818103600083015261395c8188613187565b905081810360208301526139708187613187565b905061397f60408301866136c2565b61398c60608301856136c2565b61399960808301846136c2565b9695505050505050565b600060408201905081810360008301526139bd8185613187565b90506139cc60208301846136c2565b9392505050565b600060608201905081810360008301526139ed8186613187565b90506139fc60208301856136c2565b613a0960408301846136c2565b949350505050565b60006020820190508181036000830152613a2a81613214565b9050919050565b60006020820190508181036000830152613a4a81613237565b9050919050565b60006020820190508181036000830152613a6a8161325a565b9050919050565b60006020820190508181036000830152613a8a816132a0565b9050919050565b60006020820190508181036000830152613aaa816132c3565b9050919050565b60006020820190508181036000830152613aca816132e6565b9050919050565b60006020820190508181036000830152613aea81613309565b9050919050565b60006020820190508181036000830152613b0a8161332c565b9050919050565b60006020820190508181036000830152613b2a8161334f565b9050919050565b60006020820190508181036000830152613b4a81613372565b9050919050565b60006020820190508181036000830152613b6a816133b8565b9050919050565b60006020820190508181036000830152613b8a816133fe565b9050919050565b60006020820190508181036000830152613baa81613421565b9050919050565b60006020820190508181036000830152613bca81613467565b9050919050565b60006020820190508181036000830152613bea816134ad565b9050919050565b60006020820190508181036000830152613c0b8184613516565b905092915050565b60006020820190508181036000830152613c2d8184613623565b905092915050565b6000602082019050613c4a60008301846136c2565b92915050565b600060c082019050613c6560008301896136c2565b8181036020830152613c778188613187565b90508181036040830152613c8b8187613187565b9050613c9a60608301866136c2565b613ca760808301856136c2565b613cb460a08301846136c2565b979650505050505050565b6000604082019050613cd460008301856136c2565b613ce160208301846136c2565b9392505050565b6000613cf2613d03565b9050613cfe8282613fc8565b919050565b6000604051905090565b600067ffffffffffffffff821115613d2857613d27614100565b5b613d318261412f565b9050602081019050919050565b6000819050602082019050919050565b600081519050919050565b600081519050919050565b600081519050919050565b6000602082019050919050565b600082825260208201905092915050565b600082825260208201905092915050565b600082825260208201905092915050565b600082825260208201905092915050565b600081905092915050565b6000613dd682613f4a565b9150613de183613f4a565b9250827fffffffffffffffffffffffffffffffffffffffffffffffffffffffffffffffff03821115613e1657613e15614073565b5b828201905092915050565b6000613e2c82613f4a565b9150613e3783613f4a565b925082613e4757613e466140a2565b5b828204905092915050565b6000613e5d82613f4a565b9150613e6883613f4a565b9250817fffffffffffffffffffffffffffffffffffffffffffffffffffffffffffffffff0483118215151615613ea157613ea0614073565b5b828202905092915050565b6000613eb782613f4a565b9150613ec283613f4a565b925082821015613ed557613ed4614073565b5b828203905092915050565b6000613eeb82613f2a565b9050919050565b60008115159050919050565b60007fffffffff0000000000000000000000000000000000000000000000000000000082169050919050565b600073ffffffffffffffffffffffffffffffffffffffff82169050919050565b6000819050919050565b82818337600083830152505050565b60005b83811015613f81578082015181840152602081019050613f66565b83811115613f90576000848401525b50505050565b60006002820490506001821680613fae57607f821691505b60208210811415613fc257613fc16140d1565b5b50919050565b613fd18261412f565b810181811067ffffffffffffffff82111715613ff057613fef614100565b5b80604052505050565b600061400482613f4a565b91507fffffffffffffffffffffffffffffffffffffffffffffffffffffffffffffffff82141561403757614036614073565b5b600182019050919050565b600061404d82613f4a565b915061405883613f4a565b925082614068576140676140a2565b5b828206905092915050565b7f4e487b7100000000000000000000000000000000000000000000000000000000600052601160045260246000fd5b7f4e487b7100000000000000000000000000000000000000000000000000000000600052601260045260246000fd5b7f4e487b7100000000000000000000000000000000000000000000000000000000600052602260045260246000fd5b7f4e487b7100000000000000000000000000000000000000000000000000000000600052604160045260246000fd5b6000601f19601f8301169050919050565b7f202d2d204e465420233a20000000000000000000000000000000000000000000600082015250565b7f4552433732313a207472616e7366657220746f206e6f6e20455243373231526560008201527f63656976657220696d706c656d656e7465720000000000000000000000000000602082015250565b7f4572726f723a20626f7373206d757374206861766520485020746f206174746160008201527f636b20626f73732e000000000000000000000000000000000000000000000000602082015250565b7f4552433732313a20746f6b656e20616c7265616479206d696e74656400000000600082015250565b7f2c20226d61785f76616c7565223a000000000000000000000000000000000000600082015250565b7f4552433732313a207472616e7366657220746f20746865207a65726f2061646460008201527f7265737300000000000000000000000000000000000000000000000000000000602082015250565b7f4552433732313a20617070726f766520746f2063616c6c657200000000000000600082015250565b7f4552433732313a206f70657261746f7220717565727920666f72206e6f6e657860008201527f697374656e7420746f6b656e0000000000000000000000000000000000000000602082015250565b7f4552433732313a20617070726f76652063616c6c6572206973206e6f74206f7760008201527f6e6572206e6f7220617070726f76656420666f7220616c6c0000000000000000602082015250565b7f4552433732313a2062616c616e636520717565727920666f7220746865207a6560008201527f726f206164647265737300000000000000000000000000000000000000000000602082015250565b7f4552433732313a206f776e657220717565727920666f72206e6f6e657869737460008201527f656e7420746f6b656e0000000000000000000000000000000000000000000000602082015250565b7f4572726f723a20636861726163746572206d757374206861766520485020746f60008201527f2061747461636b20626f73732e00000000000000000000000000000000000000602082015250565b7f7d205d7d00000000000000000000000000000000000000000000000000000000600082015250565b7f4552433732313a206d696e7420746f20746865207a65726f2061646472657373600082015250565b7f222c20226465736372697074696f6e223a20225468697320697320616e204e4660008201527f542074686174206c6574732070656f706c6520706c617920696e20746865206760208201527f616d65204e465420426174746c657221222c2022696d616765223a2022000000604082015250565b7f4552433732313a20617070726f76656420717565727920666f72206e6f6e657860008201527f697374656e7420746f6b656e0000000000000000000000000000000000000000602082015250565b7f4552433732313a207472616e73666572206f6620746f6b656e2074686174206960008201527f73206e6f74206f776e0000000000000000000000000000000000000000000000602082015250565b7f7b226e616d65223a202200000000000000000000000000000000000000000000600082015250565b7f4552433732313a20617070726f76616c20746f2063757272656e74206f776e6560008201527f7200000000000000000000000000000000000000000000000000000000000000602082015250565b7f646174613a6170706c69636174696f6e2f6a736f6e3b6261736536342c000000600082015250565b7f4552433732313a207472616e736665722063616c6c6572206973206e6f74206f60008201527f776e6572206e6f7220617070726f766564000000000000000000000000000000602082015250565b7f222c202261747472696275746573223a205b207b202274726169745f7479706560008201527f223a20224865616c746820506f696e7473222c202276616c7565223a20000000602082015250565b7f7d2c207b202274726169745f74797065223a202241747461636b2044616d616760008201527f65222c202276616c7565223a2000000000000000000000000000000000000000602082015250565b61475881613ee0565b811461476357600080fd5b50565b61476f81613ef2565b811461477a57600080fd5b50565b61478681613efe565b811461479157600080fd5b50565b61479d81613f4a565b81146147a857600080fd5b5056fe4142434445464748494a4b4c4d4e4f505152535455565758595a6162636465666768696a6b6c6d6e6f707172737475767778797a303132333435363738392b2f426f73732061747461636b656420706c617965722e204e657720706c617965722068703a2025730a4d696e746564204e465420772f20746f6b656e496420257320616e6420636861726163746572496e6465782025730a506c6179657220772f206368617261637465722025732061626f757420746f2061747461636b2e2048617320257320485020616e64202573204144a264697066735822122019c4397cca329c4b7546f7a9a3a384274dc43f1004575c4cf0af2e880b098e9b64736f6c63430008040033446f6e6520696e697469616c697a696e6720257320772f2048502025732c20696d67202573",
  "linkReferences": {},
  "deployedLinkReferences": {}
}